S013000046726565504C435F5254532E7372656358
S113100000BF00BF00BF00BF00BF00BF72B60548ED
S1131010054901600A6882F308880448804762B67B
S11310200348004708ED00E0009C0000AD400000CC
S11310307B41000080B500210846DFF89427126840
S1131040526D904700F006FDAA20DFF8881708705B
S113105001BD80B55520DFF87C17087000F003FD52
S1131060DFF86C070068806DBDE80240004700218E
S113107001804180818070470288802A12DA828848
S1131080531C83800244917181880A46921101EBBA
S11310905262D211A1EBC21181800188491C0180E6
S11310A001207047002070470288802A12DA828863
S11310B0531C83800244917181880A46921101EB8A
S11310C05262D211A1EBC21181800188491C0180B6
S11310D00120704700207047F8B504460D461646B7
S11310E000273046461E80B2002808D029782046C2
S11310F0FFF7C2FF002802D06D1C7F1CF1E73846C1
S1131100F2BD0288002A13D04288531C4380024453
S113111092790A7041880A46921101EB5262D21107
S1131120A1EBC21141800188491E01800120704752
S1131130002070470288002A13D04288531C438041
S1131140024492790A7041880A46921101EB526274
S1131150D211A1EBC21141800188491E01800120F6
S113116070470020704780B500F0B4FCDFF86806D3
S1131170002101604160816101BD0000FEB5DFF81E
S11311805846DFF8585629686068091A40F2E93071
S1131190814205D300202060286860600020A0619F
S11311A02068401E172819D8DFE810F0D001EA01A2
S11311B0FF011F021800540266029802AF02C9021E
S11311C0E302180082019E01BB0142024202F802BE
S11311D03B004D001A012E016C014D01286860602E
S11311E0012104F1080000F02FFD002800F0EF8237
S11311F0207A612802D0622803D004E0FFF71AFFA6
S113120001E0FFF726FF1320206004F13000217A6B
S11312100170DFF8C0150978417002216172E06045
S1131220F7BD28686060617A002909D0E06800F0A1
S1131230E2FCE1680144E160617A081A6072F7BD7A
S113124014202060F7BD28686060207A61281ED0D1
S113125062281CD0632861D064286CD0652862D0D1
S1131260662879D0672800F08680682800F0A0807E
S1131270692800F0A0806B2800F0AA80702809D0AB
S1131280712817D072280DD073281BD09DE0002040
S11312902060F7BD162020600C206072DFF8400546
S11312A0E060F7BD1820206008206072DFF8340584
S11312B0E060F7BD1720206008206072DFF8280581
S11312C0E060F7BD11202060DFF81855DFF80065F5
S11312D000F05DFD002811D0552068614FF42830DE
S11312E0306000F0AEFD00F03FFB00280BD0012081
S11312F0DFF8F8140870FFF79DFE04E0DFF8F0044F
S11313003060AA2068610420607204F11000E0607B
S11313100420206105F114006061F7BD0120DFF8AD
S1131320CC140870F7BD0D202060DFF8A404006819
S1131330C06EA061F7BD01202060DFF89454002046
S11313402968496E88472868006F804704206072C6
S113135004F11000E060F7BD1020206004206072EA
S113136004F11000E06020202061DFF864040068CC
S1131370006D6061F7BD002604F1300509E03046D8
S1131380C0B2DFF84C140968896F884745F8270014
S1131390761C3746FFB2042FF1DB112020600420B5
S11313A0607204F11000E060102020616561F7BDF7
S11313B006202060F7BD00202060DFF814040068D8
S11313C0D0F88000BDE8FE40004700202060F7BD53
S11313D0152020600620206104F11C006061F7BD27
S11313E028686060206900280BD0014689B26069D2
S11313F000F02AFC6169014461612169081A2061D5
S1131400F7BD00202060F7BD28686060617A00297C
S113141009D0E06800F018FCE1680144E160617AF9
S1131420081A6072F7BDDFF8BC138868B0F5205F56
S113143006D208220C31C00000F5283000F0ACFDC3
S113144000202060F7BD28686060617A002909D017
S1131450E06800F0F9FBE1680144E160617A081A90
S11314606072F7BDDF4DD5E900231146C9004FF482
S1131470283000F07BFD2946012000F08EFD00207D
S11314802060F7BD28686060617A002909D0E068AF
S113149000F0DAFBE1680144E160617A081A6072E5
S11314A0F7BDD149022000F078FD00202060F7BD8F
S11314B02868606004F1140204F1100104F11C00B6
S11314C0C34B1B689B6E9847002803D12069001DFD
S11314D0206101E0002020610E2020600420607261
S11314E004F11000E060F7BD28686060617A0029AB
S11314F009D0E06800F07FFBE1680144E160617AB3
S1131500081A6072F7BD2069002807DD0F202060EB
S11315100420607204F11C00E060F7BD002020602C
S1131520F7BD28686060617A00290CD0E06800F09B
S113153062FBE1680144E160617A091A6172216920
S1131540081A2061F7BD12202060F7BD617A0029D6
S113155009D0E06800F078FBE1680144E160617A59
S1131560081A6072F7BD286860602069002858DD99
S1131570022020600420607204F11C00E060F7BDCA
S1131580617A00290CD0E06800F05EFBE168014458
S1131590E160617A091A61722169081A2061F7BD54
S11315A02868606003202060F7BD012104F1090070
S11315B000F04AFB002800F00A8128686060206976
S11315C0401E2061607A002809D10021E069804A28
S11315D01268526F904720690028C9DC21E004207A
S11315E0206004F130006061F7BD617A00290CD0FD
S11315F0606900F029FB616901446161617A091A3B
S113160061722169081A2061F7BD2868606004F1DD
S11316103001E0696E4A1268526F904720690028D1
S1131620A6DC6B480068006E804700202060F7BD90
S113163028686060617A002909D0E06800F0DBFA6C
S1131640E1680144E160617A081A6072F7BD122012
S11316502060F7BD012104F11C0000F0F5FA002818
S113166000F0B58028686060072020600420607264
S113167004F12000E060F7BD617A00290CD0E06835
S113168000F0E2FAE1680144E160617A091A6172EA
S11316902169081A2061F7BD28686060082020606D
S11316A004F1300504F12C00029004F128000190AB
S11316B004F1240000904FF480732A46216A207FAD
S11316C0434E3668F66FB04720610C302061656187
S11316D00420607204F11000E060F7BD28686060C7
S11316E0617A002909D0E06800F085FAE1680144D4
S11316F0E160617A081A6072F7BD09202060042055
S1131700607204F12400E060F7BD28686060617ACB
S113171000290CD0E06800F06EFAE1680144E16051
S1131720617A091A61722169081A2061F7BD0A20D9
S113173020600420607204F12800E060F7BD28688E
S11317406060617A00290CD0E06800F054FAE16826
S11317500144E160617A091A61722169081A206101
S1131760F7BD0B2020600420607204F12C00E060BF
S1131770F7BD28686060617A00290CD0E06800F049
S11317803AFAE1680144E160617A091A61722169F7
S1131790081A2061F7BD12202060F7BD2868606038
S11317A0206900280BDD014689B2606900F023FA44
S11317B06169014461612169081A2061F7BDA0696A
S11317C0002802D080470020A06100202060F7BDDF
S11317D030C0FF1F18C0FF1FF0C0FF1F08C0FF1F4D
S11317E028C3FF1F20C3FF1F38C3FF1F19C0FF1FDB
S11317F0A83E0000F0B4024609E0F0BC70476D1C3E
S113180047F825601B681B6C43F82540521C0B46A7
S11318109A42F2DA8C4B1C68656C55F82260246C91
S113182054F82240551E1F687F6C8542E7DB57F849
S113183025C06645E3D207EB8507C7F804C01F68D7
S11318403F6C57F825C007EB8507C7F804C06D1E29
S1131850E9E738B50C4603467B4909680A6C52F837
S1131860232092895B1C00E05B1C2546AB4206DA10
S11318700D6C55F82350AD89AA42F5D01C4621467B
S113188089B2FFF7B7FFA4B2204632BD10B50C46AB
S113189003E0214680B2FFF7DCFF0146224689B20D
S11318A09142F6D310BD6948002181600173016043
S11318B070476648012101730168491C0160704743
S11318C0012070472DE9FC4105465F4C2068006CFF
S11318D050F825005E4E8189CDF800106DA1427943
S11318E011F802306AA1007911F8002062A1304693
S11318F000F096FB07462068006C50F82500C0886D
S113190000281ED04FF0000801E008F1010820680B
S1131910006C50F825004146C28889B2914210D229
S113192080684FEA080189B250F8212057A1F019C4
S113193000F076FBC719722FE7DD002086F87300EC
S113194072277F1C3A46314603202368D3F884303B
S113195098473A46314603202368D3F8843002B0CE
S1131960BDE8F0411847000070B5374C2068B0F866
S1131970485000260DE0304680B2FFF7A3FF2068F0
S1131980016C51F8261009790902406C40F82610C0
S1131990761CAE42EFDB284601460020FFF72AFF03
S11319A0002100E0491CA94208DA2068006C50F8C4
S11319B0210000790028F5D024480181234E318983
S11319C0084602E0421C7281401CA84207DA2268E1
S11319D0126C52F820201279012AF3D07081002071
S11319E0FFF754FF71893089FFF750FF28460146FD
S11319F07089FFF74BFF0020024603E0496C41F871
S1131A002020401C2168A842F8DB086C706001208B
S1131A1070BD38B50D480489002504E0284680B21D
S1131A2000F034FB6D1CA542F8DB31BD38B5074826
S1131A304489058904E0284680B200F083FB6D1CCC
S1131A40A542F8DB31BD000030C0FF1F20C4FF1FDA
S1131A5030C4FF1F80B5002002E000F015FB012018
S1131A600028FAD001BD80B5002002E000F00DFB93
S1131A7001200028FAD001BD436865636B696E6775
S1131A803A20252525632563256400002E2564005E
S1131A9049514D00584257444C000000010008D4FD
S1131AA0012200F01F0002FA00F0744A490942F8CA
S1131AB02100704780B501466FF07F02914201D149
S1131AC0012002BDFFF7EAFF002002BDC17170478B
S1131AD0C07970471FB56A4C201DFFF7C8FA04F19E
S1131AE08C00FFF7C4FA684600F08FFC4FF4E13035
S1131AF0009001208DF80B008DF80C008DF8070084
S1131B00042000F08DFD5F4C02466946204600F03B
S1131B10A9FB4FF40221204600F094FC2120FFF79A
S1131B20C9FF2220FFF7C6FF1FBD000038B500BF64
S1131B3000BF00BF00BF00BF00BF524C2079504D12
S1131B40287010F01F0F03D02046FFF7C1FF287044
S1131B50607910F0C00F03D0607950F0C00060715C
S1131B6000BF00BF00BF00BF00BF00BF31BD000009
S1131B7070B500BF00BF00BF00BF00BF00BF414C35
S1131B802079800618D5E078800615D50025A67D35
S1131B9010E02046FFF79CFF394A10700146101DE3
S1131BA0FFF782FA002804D14FF40221204600F006
S1131BB05EFC6D1CB542ECDB2079000614D5E078A0
S1131BC0400611D52E4D294605F18C00FFF7B2FAD7
S1131BD0002804D029782046FFF778FF04E04FF46A
S1131BE04041204600F043FC00BF00BF00BF00BFDF
S1131BF000BF00BF70BDF8B50A46012181F310880B
S1131C001F4D05F18C0601463046FFF765FA0400C6
S1131C1015D01C4FF878000611D429463046FFF73A
S1131C2070FA00280BD038790006FCD5297838469C
S1131C30FFF74CFF4FF48041384600F003FC0020CE
S1131C4080F310882046F2BD70B504460D46002688
S1131C50012080F310882846451E80B2002808D051
S1131C6021460948FFF74DFA002802D0641C761C6F
S1131C70F1E7002080F31088304670BD00E100E0F9
S1131C80B0C4FF1F00B00640B4C4FF1F10B5974C8A
S1131C9000210846A269526D9047FFF7DBFEAA2097
S1131CA0207010BD70B500F01EFE00F0E1FE904CF7
S1131CB000200146C4E900018E4E00F0D1F93070D5
S1131CC000F02EF9FFF74FFA00F047FFFFF7EBFDA6
S1131CD0FFF7F6FD00F093F8844DE869C06980478A
S1131CE0E869806A804700F0C6F900F098F8002897
S1131CF00CD0FFF739FE002808D001206870307836
S1131D00002801D100F0C5F8FFF7C0FF7A4ED6E9EC
S1131D100001C5E90401FFF731FA2878AA282AD17D
S1131D20D6E90001D5E90423801A9941734A0023B6
S1131D30994220D801D390421DD2E869006A8047B5
S1131D40FFF767FED6E90001D5E90223801A99411D
S1131D50D4E90023994209D301D8904206D3A86953
S1131D60C06D8047D6E90001C5E90201FFF75EFEB8
S1131D70E869406A8047E869C06A8047CBE7002089
S1131D805F4909685F4A914200D1012070472DE9FB
S1131D90FF4100242546CDE9004526462F46CDE9DE
S1131DA00245A0466946022000F00AF902A9012072
S1131DB000F006F9DDE9020100291CD802D3B0F5D0
S1131DC0205F18D24FF4283006E0F0E80223B6185A
S1131DD05F41641C65F1FF35DDE902239D42F4D3C4
S1131DE001D89442F1D3DDE90001B94203D1B042F4
S1131DF001D14FF00108404604B0BDE8F08138B588
S1131E0000243A4DFFF7BBFF002804D04FF42430E0
S1131E10E861012401E03C48E861204632BD38B560
S1131E200024324DFFF7B3FF002806D04FF42830CA
S1131E30A86100F006F8012401E03448A8612046B6
S1131E4032BD70B5294CA269D0681169926803E06B
S1131E5052F8043B40F8043B8842F9D3A16949692C
S1131E60002201E040F8042B8842FBD3A069856975
S1131E70C66902E055F8040B8047B542FAD3A0695D
S1131E80046A456A02E054F8040B8047AC42FAD372
S1131E9070BD10B54FF48064002221464FF000500D
S1131EA000F0C2FE00222146194800F0BDFE0022C7
S1131EB04FF400611748BDE8104000F0B5BE0000C3
S1131EC080B500BF00BF00BF00BF00BF00BF124805
S1131ED000681249097800EB81000068804700BF60
S1131EE000BF00BF00BF00BF00BF01BD18C0FF1F7F
S1131EF010C0FF1FC8C5FF1F00C0FF1F015C2605DF
S1131F00FC9F0200AA55341220400000A83E0000A5
S1131F10000400200008002040C0FF1F04ED00E082
S1131F2038B53C4D0022342105F10C0000F07CFE54
S1131F3005F10C0000F0B2FE040001D000F015F829
S1131F402A46042105F10C0000F084FF2A1D01211A
S1131F5005F10C0000F07EFF05F10802002105F1F7
S1131F600C0000F077FF204632BDFEE7F8B50446CA
S1131F700025284EB068B1FBF0F700FB17110029CB
S1131F8007D07F1C05E0B06800FB054000F026F890
S1131F906D1CBD42F7D3F1BD2EE038B504460D46A5
S1131FA01C490A6848688218886800FB1424204683
S1131FB000F014F8082229462046BDE838401BE00A
S1131FC010B4144B1C685A6814199A6802FB104028
S1131FD0D0E90023C1E9002310BC704780B5014655
S1131FE00C480D4B82680C3000F0A8FE002802D08B
S1131FF0BDE80140B9E701BD80B513460A46014674
S1132000064800F0DFFE002802D0BDE80140ACE73E
S113201001BD0000D4C3FF1F6B66656BE0C3FF1FE7
S11320200CB430B583B00A4606A9029104460025D3
S11320300194009502AB01A9084878441E3001F0D0
S113204027F8019A157000284EBF04460198041B16
S1132050204603B030BC5DF80CFB00BFA3180000A1
S113206000205F490A7812F03D0F02D14978002917
S113207000D0012070475B484FF0005101605A497D
S113208041605A49816070477047704758494968B0
S113209051F8203099899A68127802F007025B7926
S11320A0042B4DD8DFE803F00313202E3C008029D5
S11320B046D24C4B1B68595C114101F001014D4A59
S11320C01268126C52F820000068017038E0802910
S11320D036D2444A1268515C464A1268126C52F86D
S11320E02000006801702BE0402929D23D4A126883
S11320F032F811103F4A1268126C52F8200000683E
S113210001801DE020291BD2364A126852F82110A2
S1132110384A1268126C52F82000006801600FE01F
S113212010290DD22F4A126802EBC101D1E9002314
S113213030490968096C51F820000068C0E900239F
S11321400020704710B42B490968096C51F820002D
S113215082898168097801F007014379042B3CD80E
S1132160DFE803F0031820293200802A35D2006802
S113217000781C4B5B689C5C002804D000FA01F1D9
S11321802143995429E0012000FA01F124EA0101D4
S1132190995422E0802A20D20068007811494968C5
S11321A088541AE0402A18D2006800880D4949680A
S11321B001F8120011E0202A0FD2006800680949D2
S11321C0496801F8220008E0102A06D20068D0E924
S11321D000010449496801F83200002010BC70472E
S11321E000F0074014C4FF1F000400200008002072
S11321F020C4FF1F30C0FF1FDFF89C1201EB104109
S11322000A68012303FA00F01043086070470000D5
S113221010B50024012C06D809A151F824108142DC
S113222001D0641CF6E7012C07D9A522DFF86C1253
S113223005A001F095F9AFF30080204610BD000021
S113224000A0064000B00640696E7374616E636559
S1132250203C20756172744172726179436F756EAE
S1132260740000002DE9F04106460C461746002C88
S113227008D1D022DFF824120FF2302001F070F9D7
S1132280AFF300802068002808D1D122DFF80C12B7
S11322900FF2202001F064F9AFF30080DFF8005260
S11322A0AE4201D1082007E0DFF8F801864201D1EF
S11322B0012001E04FF0FF30A179884208DADFF80D
S11322C0DC11D32201F1580001F04AF9AFF3008088
S11322D0AE4201D1082007E0DFF8C801864201D1EF
S11322E0012001E04FF0FF30E179884208DADFF89D
S11322F0AC11D42201F1DC0001F032F9AFF300801B
S113230020680101B7FBF1F5ADB2002D00D1012524
S11323107F00B7FBF0F8A8EB4518690111FA88F1C2
S1132320B7FBF1F1884201D2091A00E0411A642294
S1132330B0FBF2F000EB4000884202D240F2F530EC
S113234061E03046FFF764FF0FF2801151F820007E
S1132350FFF752FFF07800F0F300F070317801F0ED
S1132360E001284651EA202131707570B07A00F0FE
S1132370E00008F01F0848EA000886F80A80B178EF
S113238021F01701A07A8000C0B200F004000143DC
S11323902079002802D040F010000143B170307859
S11323A000F0DF006179490101F020010843307039
S11323B0A079F074E0797075307C40F08800307456
S11323C0707C40F0C0007074207A002807D0707BC5
S11323D040F002007073707B40F004007073607A08
S11323E0002803D0707B40F001007073F178E07A2C
S11323F0002801D041F00801207B002801D041F0E1
S11324000401F1700020BDE8F08110B5040009D189
S113241040F27112DFF884100FF2900001F0A0F87E
S1132420AFF300804FF4E130206000202071607130
S1132430A0710120E071002020726072A072E0722D
S1132440207310BDDFF86020114002780A43027047
S1132450C3780A4653EA1223C37083790A4653EABF
S113246012438371427C52EA116141747047DFF870
S11324703820114002788A430270C3780A4633EA4E
S11324801223C37083790A4633EA12438371427C70
S113249022EA11614174704700700440B83C0000A6
S11324A000A0064000B00640C0F00F07636F6E66E0
S11324B069670000636F6E6669672D3E62617564CB
S11324C0526174655F427073000000000A003410AA
S11324D00B003410DFF898130A6860F393420A6023
S11324E0704710B5DFF884432068002808D1E5223E
S11324F0DFF880130FF29C3001F032F8AFF3008064
S1132500206810BD80B5FFF7ECFF00281CD0DFF871
S113251068231178C1F3C201C8405278C2F3011292
S1132520002A11D0052904D9891F04D0491E06D0D8
S113253009E0400902BD1421B0FBF1F002BD0C21F9
S1132540B0FBF1F002BD002002BDDFF83003DFF87C
S113255030130A78D20701D400687047406889783C
S1132560C1F34201C8407047DFF814030078C0F398
S11325700010002800D1C5E7DFF8000300687047A9
S1132580AFE710B5DFF8FC020078000610D5DFF8DD
S1132590DC422068002809D14FF4AC72DFF8D41271
S11325A00FF2F02000F0DCFFAFF30080206810BDD4
S11325B0002010BD38B5DFF8CC422078000613D5D2
S11325C0DFF8A8522868002809D14FF4B372DFF865
S11325D0A4120FF2C02000F0C3FFAFF300802868FC
S11325E0A1788909C84032BD002032BD80B5DFF82A
S11325F080020068800C10F0030002D003280AD087
S11326000CE0FFF7BEFFB0F5004F02D14FF40040DD
S113261002BD002002BD4FF47A7002BD002002BD4D
S113262080B50E2841D8DFE800F008401D1D1228AF
S11326303A3D2B2E31344040370000F03FF8DFF8AC
S113264048120968090F491CB0FBF1F002BD00F003
S113265035F8DFF834120968C1F30361491CB0FB93
S1132660F1F002BD00F02AF8DFF81C120968C1F38A
S11326700341491CB0FBF1F002BDBDE80140B5E7E0
S1132680BDE8014051E0BDE8014046E0BDE801403D
S113269025E0BDE8014056E04FF47A7002BDBDE884
S11326A0014087E7BDE801406BE7002002BD4168B7
S11326B0DFF8D421116000780CE70000DFF8C001D6
S11326C00078C0F38100032807D8DFE800F0030492
S11326D0050238E003E038E703E70020704710B54F
S11326E0DFF8A8412078800702D46079800601D5FC
S11326F0002010BDFFF738FF002801D1002010BDD5
S1132700A178C1F34111A278D2090FF2A01303EB0F
S1132710810131F81210484310BDDFF85C010078E4
S1132720800701D4002070470FE710B5FFF71CFFA6
S1132730040006D0FFF7C2FFC008A04201D3204620
S113274010BD002010BD38B5DFF84451A87840060C
S113275001D4002032BDFFF713FF040009D140F279
S11327602F22DFF810110FF2381000F0F9FEAFF34A
S11327700080287800F00700401CB4FBF0F0697872
S113278001F01F0110314843400832BDF0B4DFF8B6
S1132790E8309C79C4F381049D7905F001051E7A23
S11327A0C6F342061746B74215D0012D0BD1012CB2
S11327B002D01D78AD0706D55D7805F0FE055D7085
S11327C09D79ED07FCD41D7A05F0D005520002F086
S11327D00E022A431A725D7805F0FE0501F001022B
S11327E015435D701A7802F0FC0202431A70012C42
S11327F001D0800705D5987900F001000A4690427F
S1132800F9D10020F0BC704770B503460024DFF80E
S11328106850EE78A879C0F30010002804D1012490
S1132820E87880F02000E870287800F03B0040F061
S113283004002870A879C0F300100028FAD0002CF6
S113284000D0EE7006F01F0646EAC316490101F0F7
S113285060013143E970A879C0F381000028FAD1FE
S1132860100000D09047002070BDCDE7ECC0FF1FE2
S113287000700440303F00000040064038C0FF1F95
S11328800640064000500640448004400140064093
S113289004400640675F7874616C3046726571006D
S11328A06D6367706C6C30636C6B00008002DC02DB
S11328B00005B80580079508000A710B4B4901EB28
S11328C010410A68012303FA00F0104308607047BE
S11328D050F8213023F4E063120202F4E0621A4358
S11328E040F82120704738B54148FFF7E7FF4148D9
S11328F0FFF7E4FF4048FFF7E1FF4048FFF7DEFF42
S11329003F48FFF7DBFF3F4C032200212046FFF73F
S1132910DFFF032201212046FFF7DAFF00221E21F8
S11329202046FFF7D5FF002213212046FFF7D0FFF2
S1132930002210212046FFF7CBFF0022122120465F
S1132940FFF7C6FF002211212046FFF7C1FF002236
S11329500A212D48FFF7BCFF00221D212046FFF766
S1132960B7FF2A4C062205212046FFF7B1FF284D68
S1132970062200212846FFF7ABFF06220121284644
S1132980FFF7A6FF062202212846FFF7A1FF062231
S113299003212846FFF79CFF012200212046FFF770
S11329A097FF012211462046FFF792FF01220221E0
S11329B02046FFF78DFF012203212046FFF788FF01
S11329C0012204212046FFF783FF0122062120462D
S11329D0FFF77EFF0F48016821F4EE6101600E48A5
S11329E0016821F0D001016031BD00000070044095
S11329F00D0038100A003810090038100B00381088
S1132A000C00381000D0044000A0044000B0044082
S1132A1000C00440088104401080044024490A682E
S1132A2060F30C320A6070472248234908607047FB
S1132A3047F2305100E000BF0846411E0028FAD199
S1132A4070471E490A6822F00202400000F00200AA
S1132A501043086070471A4A400000F00E0001F06D
S1132A60010108431060106840F080501060704706
S1132A7080B5FFF7D9FF144A03210120FFF7F5FEC3
S1132A80002201210220FFF781FE00BF10A0FFF702
S1132A900EFE0E480B4908600120FFF7D2FF01200B
S1132AA0FFF7BCFF00210846BDE80440D3E700005F
S1132AB00480044000000711448004400081044065
S1132AC06880044044C0FF1F312A00000080B8051C
S1132AD00300000000000701010008D4012200F0F7
S1132AE01F0002FA00F0494A490942F821007047E0
S1132AF080B501466FF07F02914201D1012002BDF1
S1132B00FFF7EAFF002002BD10B5040007D18522BB
S1132B10DFF8FC1042A000F023FDAFF3008000209A
S1132B20207010BD00EB0110D0F808110A43C0F862
S1132B300821704700EB0110C0F80C21704700EB2E
S1132B400110C0F80021704700EB0110D0F8081103
S1132B5041F00101C0F8081170471CB52D480078F8
S1132B60002806D12C48002181600A460B46C0E9A2
S1132B7000236846FFF7C8FF284C6946204600F04A
S1132B8021FD0220FFF74CFD4FF47A71B0FBF1F206
S1132B9000212046FFF7D3FF022200212046FFF741
S1132BA0C1FF3020FFF7A4FF00212046FFF7CCFF30
S1132BB013BD000010B500BF00BF00BF00BF00BFC1
S1132BC000BF012200211548FFF7B4FF124CD4E9DD
S1132BD00001401C61F1FF31C4E90001D4E90001A6
S1132BE04FF47A72002300F01FFD002B06D1002A57
S1132BF004D1A068401CA060FEF75BFE00BF00BFCC
S1132C0000BF00BF00BF00BF10BD000000E100E036
S1132C10883F0000C8C5FF1F00C0FF1F00700340AD
S1132C20636F6E666967000062F30F2262F31F42EE
S1132C3000B500BF130096469446103928BFA0E89B
S1132C400C50FAD85FEA417C28BF0CC048BF40F85A
S1132C50042BC90728BF20F8022B48BF00F8012B1A
S1132C6000BD30B4002513E050F8042BD30744BF53
S1132C70A9F101039A18091F042942F8045BFAD246
S1132C8013468C0744BF15809B1CC90748BF1D70A1
S1132C9050F8041B0029E7D130BC704710B504007C
S1132CA001D1042010BDDFF87C030068000E00F0A1
S1132CB00F000F2802D14FF4802004E00FF2B0314E
S1132CC031F8100080020021216060600120207230
S1132CD04FF48050E060DFF850134FF4807291F9A4
S1132CE0000082406261C878A061204600F04AF981
S1132CF000280DD0DFF834030021016000F10C013D
S1132D00416000F14C018160E061204600F004F86C
S1132D1000202062606210BD10B5002802D0C46992
S1132D20002C01D1042010BD606800F0C7F8A06831
S1132D3000F0FAF802202060002010BD2DE9F041D7
S1132D4088B005460C4616461F466A4600F03FF911
S1132D50049B32462146284600F022F9040004D19F
S1132D60384600F057F9040001D0204627E0009FC0
S1132D70DDF80480F619761EB6FBF8F108FB116045
S1132D80002804D00E46761C08FB06F6761E0021A9
S1132D90284600F0E9F8BE420DD327F07F4040F00A
S1132DA01060DFF88C120860284600F092F80400E6
S1132DB001D14744EFE7284600F0D5F8204608B093
S1132DC0BDE8F0812DE9F84388B007460D461400AC
S1132DD001D104203AE098466A4600F0F8F8039BD3
S1132DE042462946384600F0DBF805002ED1DDF8CE
S1132DF000900021384600F0B7F82646444611E01A
S1132E00082907D156F8041B816029F07F4141F05D
S1132E10E0610160384600F05CF8050012D10398C7
S1132E208144241A002C0DD0DFF8040256F8041B48
S1132E30416003990429E3D129F07F4141F0C06145
S1132E400160E7E7384600F08EF8284609B0BDE88F
S1132E50F0830000002801D0002A01D1042070472B
S1132E60092928D8DFE801F005090C1215181B1EE2
S1132E702124C06810600020704740681060FAE7A1
S1132E804168007AB1FBF0F01060F4E7007A10605A
S1132E90F1E700681060EEE701201060EBE740699D
S1132EA01060E8E780691060E5E7006A1060E2E717
S1132EB0406A1060DFE76A207047000010B50446DE
S1132EC05FF00C0260A100F0C7FC641C5A48046067
S1132ED010BD38B5012181F31088584D7021297037
S1132EE000F050F80024002802D084F3108832BD8A
S1132EF0284651490968884784F310882878810650
S1132F0003D584F31088672032BDC10603D584F34A
S1132F101088682032BDC00784F3108801D5692069
S1132F2032BD204632BD000010B504465FF01C02DD
S1132F3048A100F091FC641C4148046010BD10B528
S1132F400F2314224FF470013A483D4C2468A047E3
S1132F5010BD10B5012313224FF400213548384C1D
S1132F602468A04710BD012110B50C4600F00AF8F2
S1132F70002806D1012C04D1FFF7E1FFBDE8104081
S1132F80E7E710BD002801D104207047C06900287C
S1132F9004D00068022801D1002070476D207047DA
S1132FA0002801D1042070475B1E194201D11A4246
S1132FB001D0652070470368994206D34068C3185E
S1132FC051188B4201D3002070476620704770B5BA
S1132FD005460E461446002D01D0002C01D10420D4
S1132FE070BD002220212046FFF71EFE2868361AF5
S1132FF02660E86860606868297AB0FBF1F0A06038
S11330000420E0601020206160610420A061E06180
S1133010002070BD0B49884201D06B20704700200E
S1133020704700004C8004402800024048C3FF1F42
S11330300400024004F0014040C3FF1F00000240AE
S113304044C3FF1F6B66656B8021017002780A42DE
S1133050FCD0704710B5002905D004688C43934018
S1133060194021430160BFF36F8FBFF34F8F10BD31
S113307008001000180020003000400060008000AC
S1133080C0000001800100020003000400060000EB
S11330902DE9F84F92B01546029100211C9ADFF8F1
S11330A004828DF82F2081469A4608910FF28C46AF
S11330B04FF0FF370CE025280FD015F8011B0298BC
S11330C0C8470028029000F0D7800898401C089058
S11330D028780028EFD10898E6E00020002100229B
S11330E005900691079201E041F0010115F8010FE6
S11330F02028F9D023280CD02B2804D02D2805D043
S1133100302809D0BAE041F00201EFE741F00401B0
S1133110ECE741F00801E9E741F01001E6E70A9223
S113312009E00A98404505DA00EB800402EB44020A
S1133130303A0A926D1C2A78A2F130000A28F0D3A2
S113314028782E2818BF099725D115F8010F2A28A9
S11331500AD1DAF80000CAF800006D1C50F8042BFC
S1133160CAF80000099216E02D280CBF6D1C00203F
S1133170002209920AE040B9099A424505DA02EBB5
S1133180820403EB4403303B09936D1C2B78A3F1B9
S113319030020A2AEFD3ADF82C103046297800F01B
S11331A0B3FB08B115F8010B8DF82E009DF82E0025
S11331B0682804BF2978682903D162208DF82E007D
S11331C06D1C0CA80490524615F8013B01A9484611
S11331D000F098F800284FD10A980599079A069CA0
S11331E0401A801A041B9DF82C0041070FD420209C
S11331F0002C8DF800000ADDA34601236A4601A9CC
S1133200484600F084F9B8BBBBF1010BF5D1059B2E
S11332100CAA01A9484600F07AF968BBDDF81CB095
S11332203020BBF1000F8DF8000009DD01236A4650
S113323001A9484600F06BF9F0B9BBF1010BF5D1D7
S1133240069B039A01A9484600F061F9A0B99DF8CC
S11332502C0041077FF53CAF2020002C8DF80000A6
S11332607FF736AF01236A4601A9484600F04FF9BB
S113327010B9641EF6D12BE7384615E02A287FF4EE
S11332804EAFDAF80020CAF8002052F8040BCAF84E
S1133290002000280A9003D540420A9041F004011E
S11332A06D1C4DE7CBCCCC0C13B0BDE8F08F62287D
S11332B00ED0682819D1002A0A680A60106803D061
S11332C0121D0A6000B217E0121D0A6080B217E0F6
S11332D0002A0A680A60106803D0121D0A6040B20E
S11332E00AE0121D0A60C0B20AE0002A0A680A60F5
S11332F0106803D0121D0A60C1177047121D0A60BE
S11333000021704770B51C460D46252CEE68114609
S113331000F08480582C37D0632C0ED0642C18BF56
S1133320692C14D06F2C2FD0702C49D0732C53D00F
S1133330752C18BF782C27D076E02869421C2A61A6
S11333400A680A6052F8043B0A60335476E095F840
S11333502A000122FFF7ABFF0028286004D5286962
S1133360411C29612D220DE0288D810704D528698F
S1133370411C29612B2205E0C0071CD52869411C8A
S113338029612022325416E095F82A000022FFF722
S11333908EFF286095F8280001070CD5286850B1E5
S11333A044F02001782906D1286930213154401C89
S11333B0421C2A613454214628693044A86007E03D
S11333C00868086050F8042B08602A60AE60782111
S11333D0284600F035F831E00868086050F8044BDE
S11333E00860AC603CB900BF56A000F099FA4FF0F9
S11333F0FF34201A70BD2E6A002E04D5204600F03A
S1133400AFFA044608E032460021204600F0C4FA30
S1133410002814BF041B34466C610FE02869411C6A
S113342029612522325409E02969481C2861252292
S11334307254210002D0431C2B613454002070BD0F
S1133440F0B402466F29D46808BF082605D041F0BD
S11334502000782814BF0A2610261825136864292A
S113346018BF6929184602D1002B48BF4042F0B961
S1133470136AE3B9082E39D192F82800010735D52B
S113348030201725E07531E000280ED592F8280089
S113349000F01400102808D1546A11699069641A64
S11334A0241AE31A012BA8BF9361F0BC7047B0FB48
S11334B0F6F706FB170030306D1EC3B23A2BA4BFDB
S11334C0A1F1510318186055380003D093686719A7
S11334D0BB42ECD3082E09D192F82800010705D588
S11334E0605D302802D06D1E30206055C5F1180390
S11334F0106A5361611983429160C5DA118DC31A50
S11335004FF6EF70014093611185F0BC7047F8B538
S113351005460E4617461C46002074B117F8011BD9
S11335207068A847706030B1F069401CF0610020F9
S1133530641EF3D1F2BD4FF0FF30F2BD686C747AB3
S11335404C0000007072696E74665F733A206261A9
S11335506420257320617267756D656E74000000C8
S113356000B583B00091019202906A460449182084
S1133570ABBE002801D100F03BFA03B000BD00BF90
S113358010100200214901EB10410A68012303FADB
S113359000F010430860704710B500241C49002C4B
S11335A003D1884201D00124F9E7002C07D019483F
S11335B04C2200F13C01FFF7D3FFAFF3008020461B
S11335C010BD000038B505460C0006D1532212493F
S11335D012A0FFF7C5FFAFF300802846FFF7DCFF1A
S11335E010A151F82000FFF7CDFF286820F0020059
S11335F0286020780028286803D04008400028600C
S113360031BD40F00100286031BD0000007004406D
S113361000700340183E0000543E0000636F6E6665
S11336206967000017003C10BBBBE1B1B2F5803FF5
S113363080F07E80022A1ED98C46B1FBF2F102FB97
S113364011C31B0443EA1043B3FBF2FC02FB1C331B
S113365080B240EA0343B3FBF2F002FB103240EACB
S11336600C4000237047022A05D98446B0FBF2F0CF
S113367002FB10C270474AB105D100F001024908AB
S11336805FEA3000704700220023704700F0B4B9AD
S11336900B000200002100207047904271EB030CE4
S11336A0F6D3B3F5803F2FD2F0B5B3FA83F7B1FA6E
S11336B081F4A7F10F0E3D1B5340CEF1200602FA10
S11336C00EF2F3415340B5F10F0746D80F3C2C449A
S11336D04140C4F12006A040F1414140B1FBF3F662
S11336E003FB1611A2FB0645001BA94102D2761E5C
S11336F08018594180EA010221FA0EF362FA0EF2AF
S113370000215A403046F0BD30B4B1FBF3FC03FB5A
S11337101C11A2FB0C45001BA94103D2ACF1010C06
S11337208018594130BC02460B4660460021704760
S1133730B2F1807F65D3F0B5B2FA82F7B1FA81F4C1
S1133740C7F10F063D1B22FA06F307F1110EF241F1
S113375020355A40B5F10F07B8D94140C4F12006CD
S1133760A040F1414140B1FBF3FC03FB1C11A2FB5F
S11337700C45001BA94103D2BCF1010C801859412E
S11337800F2F12D30F3FC90341EA5041B1FBF3F6A7
S113379003FB1611A2FB0645D4EBC030A94102D2AB
S11337A0761E8018594146EACC3C07B34140C7F124
S11337B02006B840F1414140B1FBF3F603FB16117A
S11337C0A2FB0645001BA94102D2761E801859416E
S11337D080EA010221FA0EF3C7F1200462FA0EF224
S11337E00CFA07F05A402CFA04F13043F0BD80EA99
S11337F0010221FA0EF3002162FA0EF260465A40E9
S1133800F0BD8C46B1FBF2F102FB11C31B0243EA8B
S11338101063B3FBF2FC02FB1C331B024CEA0020D6
S113382043EA1063B3FBF2FC02FB1C331B024CEAB9
S1133830002043EA1063B3FBF2FC02FB1C331B02BF
S11338404CEA002043EA1063B3FBF2FC02FB1C3297
S11338504CEA00200023704762B38B0708D0521E45
S113386011F8013B00F8013B00F024808B07F6D1EE
S1133870830740F0208000BF103A07D330B4B1E88A
S11338803810103AA0E83810F9D230BC530724BFDE
S1133890B1E80810A0E8081044BF51F8043B40F810
S11338A0043BD20724BF31F8022B20F8022B44BF7B
S11338B00B7803707047121F17D35B0009D151F8BE
S11338C0043B20F8023B1B0C121F20F8023BF6D2EB
S11338D00BE051F8043B00F8013B1B0A20F8023BC3
S11338E01B0C121F00F8013BF3D238BF121D521EED
S11338F024BF11F8013B00F8013BF8D87047026877
S1133900531C036011707047C9B202788A421AB11D
S11339101CBF10F8012FF9E718BF00207047FEE71D
S113392080B500B906A005490B681BB1222200210D
S1133930984701E000F05CF8222002BDC4C5FF1FD7
S1133940636F6E73747261696E742068616E646C07
S113395065723A20626164206D6573736167650006
S113396000F10103810704D010F8011B820781B123
S1133970FAD10268A2F10131914311F0803104BF00
S113398050F8042FF6E709BAB1FA81F100EBD1003F
S1133990401CC01A7047FEE7C9B2830706D0521E06
S11339A022D310F8013B9942F7D11FE0083A13D310
S11339B002F1040241EA012141EA014150F8043BC9
S11339C0121F21BF4B40A3F1013C2CEA030C1CF055
S11339D0803FF3D0C9B2001F083210F8013B521ED9
S11339E028BF91EA030FF8D818BF0120401E704782
S11339F0012000F003B8FEE77047FEE780B5AFF39F
S1133A000080024A11001820ABBEFBE7260002002A
S1133A1030B4D0E900459D4205D1944203D1DDE99B
S1133A200223C0E900232046294630BC704710B465
S1133A30002002460346674C04E004EBC101C1E9DF
S1133A400023401C0146C9B20429F6DB10BC7047B0
S1133A502DE9F04788B00746894616460C2E32D227
S1133A600396DFF870A1DAF82000049005A800F0AE
S1133A709BF8BC460AEBCC00D0E90045029506EB66
S1133A8004082946491C08F1140000F01F00CDE980
S1133A90000122462B460AEBCC00FFF7B9FFA942EE
S1133AA0E7D1A042E5D1334621464A46384600F0E4
S1133AB0B9F8142302AA08F01F084146384600F05A
S1133AC0B1F801200AE068464DA12022FFF7D4FE98
S1133AD0202269460020FFF7BBFF002008B0BDE8A4
S1133AE0F0873C4901EBC000D0E900231846704739
S1133AF02DE9F04385B017469846364A034602EB53
S1133B00C302D2E90023002B01D1002A35D0164686
S1133B1000930022019204460D46DDF80090143E05
S1133B200198361A06F01F0614236A4631462046C9
S1133B3000F09CF80098A9F10109484501D185429B
S1133B40EBD3A84219D1DDF838C00D990C9843463F
S1133B503A46019D761B06F01F06029F07600398F4
S1133B6008600498CCF80000AB4200D92B463146DB
S1133B70204600F07BF8284600E0002005B0BDE8B0
S1133B80F0830020704700207047704770477047EB
S1133B9070470000002303601846086020A01060EE
S1133BA018467047704770470B49096801600B4914
S1133BB0D1E900230A494A434260704780B5104660
S1133BC01946074A0023FFF72FFD064AC2E9000100
S1133BD001BD000048C0FF1F08C0FF1F00C0FF1F39
S1133BE040420F0010C0FF1F01207047704770470C
S1133BF070477047704770477047704770470000C0
S1133C004C6F6767696E67206572726F72203A2025
S1133C106D65737361676520746F6F2062696700F7
S1133C2000000000F8B50C4615461E460E4911EB7F
S1133C30401738193119202906D232462946243032
S1133C40BDE8F840FFF708BEC4F120042246294627
S1133C502430FFF701FE361B3246291907F12400F0
S1133C60BDE8F840FFF7F8BD48C0FF1FF8B50C46A3
S1133C7015461E460F4911EB4017381931192029F2
S1133C8007D2324600F124012846BDE8F840FFF788
S1133C90E3BDC4F12004224600F124012846FFF7C5
S1133CA0DBFD361B324607F124012819BDE8F84034
S1133CB0FFF7D2BD48C0FF1F443A5C6D795F707254
S1133CC06F6A6563745C5375706572536F75726364
S1133CD0655C46726565504C435C46726565504C44
S1133CE0434D345C46726565504C435F5254535F98
S1133CF054696D656C696D69745C6472697665722A
S1133D00735C66736C5F756172742E6300000000EF
S1133D1028286261736529203D3D20282855415299
S1133D20545F54797065202A29283078343030362D
S1133D3041303030752929203F20283829203A2065
S1133D4028286261736529203D3D20282855415269
S1133D50545F54797065202A2928307834303036FD
S1133D6042303030752929203F20283129203A203B
S1133D70282D31292929203E3D20636F6E6669670D
S1133D802D3E74784669666F57617465726D617211
S1133D906B00000028286261736529203D3D2028BE
S1133DA028554152545F54797065202A2928307867
S1133DB03430303641303030752929203F202838BE
S1133DC029203A2028286261736529203D3D202856
S1133DD028554152545F54797065202A2928307837
S1133DE03430303642303030752929203F20283194
S1133DF029203A20282D31292929203E3D20636F8E
S1133E006E6669672D3E72784669666F57617465A0
S1133E10726D61726B000000696E7374616E63652C
S1133E20203C202873697A656F6628735F70697413
S1133E30426173657329202F2073697A656F662840
S1133E4028735F7069744261736573295B305D29FF
S1133E5029000000443A5C6D795F70726F6A656393
S1133E60745C5375706572536F757263655C4672EA
S1133E706565504C435C46726565504C434D345CFB
S1133E8046726565504C435F5254535F54696D6587
S1133E906C696D69745C647269766572735C66736F
S1133EA06C5F7069742E6300000000000000000065
S1133EB000000000000000000000000000000000FE
S1133EC000000000000000000000000000000000EE
S1133ED000000000000000000000000000000000DE
S1133EE000000000000000000000000000000000CE
S1133EF00000000000000000DC3F0000833B0000E5
S1133F00873B00008B3B00008D3B00008F3B000093
S1133F10953B0000913B0000A53B0000A73B00003F
S1133F20E33A0000F13A00002F3A0000513A000051
S1133F30443A5C6D795F70726F6A6563745C537543
S1133F40706572536F757263655C46726565504C3B
S1133F50435C46726565504C434D345C46726565FE
S1133F60504C435F5254535F54696D656C696D697D
S1133F70745C647269766572735C66736C5F636C9F
S1133F806F636B2E63000000443A5C6D795F70725E
S1133F906F6A6563745C5375706572536F75726391
S1133FA0655C46726565504C435C46726565504C71
S1133FB0434D345C46726565504C435F5254535FC5
S1133FC054696D656C696D69742F64726976657284
S1133FD0735C66736C5F7069742E68004445414479
S1133FE0424545464445414442454546444541448D
S1133FF0424545464445414442454546444541447D
S1134000424545464445414442454546444541446C
S1134010424545464445414442454546000000006A
S1134020A93B0000BD3B0000E93B0000ED3B000064
S1134030EF3B0000F13B0000F33B0000F53B0000C8
S1134040F73B0000F93B0000FB3B0000FD3B000098
S11340505500000000000000000000000000000007
S11340600000000000000000A83E000000900200D4
S11340700080000000093D0000A000000000400195
S113408030B450F8041B79B1026843680244083024
S1134090DC0744BFA9F10104E31852F8045B43F8B8
S11340A0045B091FF9D1ECE730BC7047074801688D
S11340B041F47001016006484CF22051C1814DF673
S11340C02811C1814FF4E9710180704788ED00E047
S11340D00020054010B5074979441831064C7C444A
S11340E0163404E00A68081D114488470146A142B9
S11340F0F8D110BD2C0000004C0000004EF6885191
S1134100CEF20001086840F470000860BFF34F8FDE
S1134110BFF36F8F4FF00070E1EE100A704700009C
S113412043EBFFFF8405000048C0FF1F00000000B0
S113413051FFFFFF3000000018FFFFFF18C0FF1FF2
S113414000000000FEE7000000F00DF8002801D098
S1134150FFF7C0FFAFF300800020AFF30080FDF74E
S1134160A1FD00F002F80120704700F001B8FEE75D
S113417007463846FFF742FCFBE7AFF30080FFF742
S10F4180BDFFFFF7E1FFFEE7FEE7FEE7EE
S1139C0000D0FF1F011000001F3900009739000029
S1139C10F7390000FB390000454100000000000056
S1139C200000000000000000000000006F41000080
S1139C308741000000000000894100008B410000C2
S1139C40C11E0000C11E0000C11E0000C11E000094
S1139C50C11E0000C11E0000C11E0000C11E000084
S1139C60C11E0000C11E0000C11E0000C11E000074
S1139C70C11E0000C11E0000C11E0000C11E000064
S1139C80C11E0000C11E0000C11E0000C11E000054
S1139C90C11E0000C11E0000C11E0000C11E000044
S1139CA0C11E0000C11E0000C11E0000C11E000034
S1139CB0C11E0000C11E0000C11E0000C11E000024
S1139CC0C11E0000711B00002D1B0000C11E0000FE
S1139CD0C11E0000C11E0000C11E0000C11E000004
S1139CE0C11E0000C11E0000C11E0000C11E0000F4
S1139CF0C11E0000C11E0000C11E0000C11E0000E4
S1139D00B52B0000C11E0000C11E0000C11E0000D2
S1139D10C11E0000C11E0000C11E0000C11E0000C3
S1139D20C11E0000C11E0000C11E0000C11E0000B3
S1139D30C11E0000C11E0000C11E0000C11E0000A3
S1139D40C11E0000C11E0000C11E0000C11E000093
S1139FF0C11E0000C11E0000C11E0000FFFFFFFFC4
S903417B40
